:100362007368693A20200020202077656E3A0048A1
:100372003A20202552482020543A2020204300547D
:100382003A20202D20202020202020202020200064
:10039200483A20202D20202020202020202020200C
:1003A20000483A20202552482020543A2020204359
:0203B200200029
:1005B600010D0A010C25010B28010958010F000144
:0205C60008002B
:10045D00C2A18F807F017E0012046ED2A27F057E25
:01046D00008E
:10046E00D3EF9400EE940040147D6E7C00ED1D7071
:0D047E00011CED4C70F7EF1F70E61E80E3CF
:01048B00224E
:1005DA00438901758CF8758A2FD28CD2A9D2AF22A1
:1003B400751414E5B0540F640F60347F017E00128D
:1003C400046EE5B0540F640F6028E508B40123E41B
:1003D400F50875B00FAFB0EF24F5600F24FE600789
:1003E40014700F75140122751402227514032275FA
:0203F4000801FE
:0103F60022E4
:0A05F800C2A2C2A012045DC2A2223A
:0705C9007FCD1205F87FDF72
:0A05D000C2A2D2A012045DC2A22252
:0A048C007BFF7A037962E4FD7F0133
:100496008D18E518BF01042480800224C0FF1205D0
:1004A600F8120586FF600C1205D0740129F9E43AAA
:0404B600FA80EE22B8
:0F03F700AB117D027F02120406AB127D0B7F0259
:10040600EDBF01042480800224C0FF1205F8EB75BD
:10041600F00A84AAF0EB75F00A842430FF1205D0A6
:07042600EA2430FF0205D0BB
:1004BA00AA05A907BB0112EAB90104248080022413
:1004CA00C0FF1205F87F0F8010EAB901042480806A
:0D04DA000224C0FF1205F87F0C1205F82265
:10042D007F381205F87F0C1205F87F061205F812B9
:10043D00046A7F011205F812048C7A0379697D062E
:10044D007F011204967A037971E4FD7F020204960E
:03000300DFFE22FB
:10053100D3EF9400EE940040147D6E7C00ED1D70AD
:0D054100011CED4C70F7EF1F70E61E80E30B
:01054E00228A
:10059F00D2917F02120003C2917F1E7E001205319D
:0705AF00D2917F1E02000340
:10054F00E4FEFD3091FD7F08120003EE25E0FE3042
:0C055F0091010E2091FD0DBD08E9AF06D2
:01056B00226D
:1003020012059F2091593091FD7F2812000312059A
:100312004F8F1812054FA90712054FAC0712054F50
:10032200AB0712054F8F1D7F19120003E9FFE51875
:100332002FFFE433FEEC7583002FFFE5833EFEEBD7
:100342002FFFE5833EFEE51DB5070EE583B50609E1
:0F035200851819891A8C1B8B1C851911851B1294
:010361002279
:10028300D3E50C6480F8E5126480984006C294D2EA
:10029300938017C3E50D6480F8E5126480985006D7
:1002A300C293D2948004D294D293D3E5096480F8A4
:1002B300E5116480984006C296D2958017C3E50B7A
:1002C3006480F8E5116480985006C295D296800444
:1002D300D296D29530960930950630940320931E1A
:1002E300E4F517C2907F147E0012046ED2907F143F
:0F02F3007E0012046E0517E517C3940340E52241
:10000E00E51524E06050241060030201F6E5146447
:10001E000160030201F6751520F5167BFF7A037950
:10002E0081FD7F011204967A037992E4FD7F02121C
:10003E000496AB0D7D027F01120406AB0C7D067F8C
:10004E0001120406AB0B7D027F02120406AB097D82
:10005E00067F02020180E5146401705E0516E51646
:10006E00B401087B017D077F018018E516B40208F4
:10007E007B017D037F02800BE516B403097B017DB6
:10008E00077F021204BAE516D39403402DE4F51649
:10009E00FB7D077F021204BA75151012048C7A03C9
:1000AE0079697D067F011204967A0379A3E4FD7FB8
:1000BE00021204961203F71205C9E51464026003D6
:1000CE0002015FE516701D050DD3E50D648094E306
:1000DE004003E4F50DAB0D7D027F011204067B019A
:1000EE007D038020E516B4011F050CD3E50C64805A
:1000FE0094E34003E4F50CAB0C7D067F011204067D
:10010E007B017D077F018046E516B4021F050BD3E8
:10011E00E50B648094E34003E4F50BAB0B7D027FAB
:10012E00021204067B017D037F028022E516B403D2
:10013E00200509D3E509648094E34003E4F509AB97
:10014E00097D067F021204067B017D077F021204E1
:10015E00BAE514640360030201F6E516701D150D71
:10016E00C3E50D648094805003750D63AB0D7D0265
:10017E007F011204067B017D038020E516B4011F6A
:10018E00150CC3E50C648094805003750C63AB0CA6
:10019E007D067F011204067B017D077F018046E507
:1001AE0016B4021F150BC3E50B64809480500375C3
:1001BE000B63AB0B7D027F021204067B017D037F76
:1001CE00028022E516B403201509C3E50964809464
:1001DE00805003750963AB097D067F021204067B0E
:0901EE00017D077F021204BA2210
:1004E700E50A6021E4F50A050FE50FD394054015E9
:1004F700E4F50FE515B4100DC2AF120302D2AF1227
:0605070003F7120283223B
:10056C001205DA12042D1203F71205C9751414754D
:0A057C001510E4F50EF50AF516223D
:0E05EA0012056C1203B412000E1204E780F525
:03000B0002050DDE
:10050D00C0E0C0D0C28DC28C050EE50ED394324032
:10051D0006750E00750A01D28C758CF8758A2FD070
:04052D00D0D0E03218
:030000000201F703
:0C01F700787FE4F6D8FD75812002023EFE
:10058600BB010689828A83E0225002E722BBFE0273
:09059600E32289828A83E49322A6
:100203000205EAE493A3F8E493A34003F68001F222
:1002130008DFF48029E493A3F85407240CC8C333FC
:10022300C4540F4420C8834004F456800146F6DFCB
:10023300E4800B01020408102040809005B6E47EA0
:10024300019360BCA3FF543F30E509541FFEE493C0
:10025300A360010ECF54C025E060A840B8E493A387
:10026300FAE493A3F8E493A3C8C582C8CAC583CAB2
:10027300F0A3C8C582C8CAC583CADFE9DEE780BE6A
:0105C8000032
:00000001FF
